{
  "_format": "hh3-artifact-1",
  "contractName": "ProductRegistry",
  "sourceName": "contracts/ProductRegistry.sol",
  "abi": [
    {
      "anonymous": false,
      "inputs": [
        {
          "indexed": false,
          "internalType": "string",
          "name": "productId",
          "type": "string"
        },
        {
          "indexed": false,
          "internalType": "address",
          "name": "actor",
          "type": "address"
        },
        {
          "indexed": false,
          "internalType": "string",
          "name": "condition",
          "type": "string"
        },
        {
          "indexed": false,
          "internalType": "bool",
          "name": "onHold",
          "type": "bool"
        },
        {
          "indexed": false,
          "internalType": "string",
          "name": "notes",
          "type": "string"
        },
        {
          "indexed": false,
          "internalType": "uint256",
          "name": "timestamp",
          "type": "uint256"
        }
      ],
      "name": "ConditionUpdated",
      "type": "event"
    },
    {
      "anonymous": false,
      "inputs": [
        {
          "indexed": false,
          "internalType": "string",
          "name": "productId",
          "type": "string"
        },
        {
          "indexed": false,
          "internalType": "address",
          "name": "actor",
          "type": "address"
        },
        {
          "indexed": false,
          "internalType": "string",
          "name": "stage",
          "type": "string"
        },
        {
          "indexed": false,
          "internalType": "string",
          "name": "location",
          "type": "string"
        },
        {
          "indexed": false,
          "internalType": "uint256",
          "name": "timestamp",
          "type": "uint256"
        }
      ],
      "name": "CustodyTransferred",
      "type": "event"
    },
    {
      "anonymous": false,
      "inputs": [
        {
          "indexed": false,
          "internalType": "string",
          "name": "productId",
          "type": "string"
        },
        {
          "indexed": false,
          "internalType": "string",
          "name": "name",
          "type": "string"
        },
        {
          "indexed": false,
          "internalType": "address",
          "name": "manufacturer",
          "type": "address"
        },
        {
          "indexed": false,
          "internalType": "uint256",
          "name": "timestamp",
          "type": "uint256"
        }
      ],
      "name": "ProductRegistered",
      "type": "event"
    },
    {
      "inputs": [
        {
          "internalType": "string",
          "name": "productId",
          "type": "string"
        }
      ],
      "name": "getConditionHistory",
      "outputs": [
        {
          "components": [
            {
              "internalType": "address",
              "name": "actor",
              "type": "address"
            },
            {
              "internalType": "string",
              "name": "condition",
              "type": "string"
            },
            {
              "internalType": "bool",
              "name": "onHold",
              "type": "bool"
            },
            {
              "internalType": "string",
              "name": "notes",
              "type": "string"
            },
            {
              "internalType": "uint256",
              "name": "timestamp",
              "type": "uint256"
            }
          ],
          "internalType": "struct ProductRegistry.ConditionEvent[]",
          "name": "",
          "type": "tuple[]"
        }
      ],
      "stateMutability": "view",
      "type": "function"
    },
    {
      "inputs": [
        {
          "internalType": "string",
          "name": "productId",
          "type": "string"
        }
      ],
      "name": "getHistory",
      "outputs": [
        {
          "components": [
            {
              "internalType": "address",
              "name": "actor",
              "type": "address"
            },
            {
              "internalType": "string",
              "name": "stage",
              "type": "string"
            },
            {
              "internalType": "string",
              "name": "location",
              "type": "string"
            },
            {
              "internalType": "uint256",
              "name": "timestamp",
              "type": "uint256"
            }
          ],
          "internalType": "struct ProductRegistry.CustodyEvent[]",
          "name": "",
          "type": "tuple[]"
        }
      ],
      "stateMutability": "view",
      "type": "function"
    },
    {
      "inputs": [
        {
          "internalType": "string",
          "name": "productId",
          "type": "string"
        }
      ],
      "name": "getProduct",
      "outputs": [
        {
          "internalType": "string",
          "name": "",
          "type": "string"
        },
        {
          "internalType": "string",
          "name": "",
          "type": "string"
        },
        {
          "internalType": "string",
          "name": "",
          "type": "string"
        },
        {
          "internalType": "address",
          "name": "",
          "type": "address"
        },
        {
          "internalType": "string",
          "name": "",
          "type": "string"
        },
        {
          "internalType": "bool",
          "name": "",
          "type": "bool"
        }
      ],
      "stateMutability": "view",
      "type": "function"
    },
    {
      "inputs": [
        {
          "internalType": "string",
          "name": "productId",
          "type": "string"
        }
      ],
      "name": "isAuthentic",
      "outputs": [
        {
          "internalType": "bool",
          "name": "",
          "type": "bool"
        }
      ],
      "stateMutability": "view",
      "type": "function"
    },
    {
      "inputs": [
        {
          "internalType": "string",
          "name": "productId",
          "type": "string"
        },
        {
          "internalType": "string",
          "name": "name",
          "type": "string"
        },
        {
          "internalType": "string",
          "name": "metadata",
          "type": "string"
        }
      ],
      "name": "registerProduct",
      "outputs": [],
      "stateMutability": "nonpayable",
      "type": "function"
    },
    {
      "inputs": [
        {
          "internalType": "string",
          "name": "productId",
          "type": "string"
        },
        {
          "internalType": "string",
          "name": "stage",
          "type": "string"
        },
        {
          "internalType": "string",
          "name": "location",
          "type": "string"
        }
      ],
      "name": "transferCustody",
      "outputs": [],
      "stateMutability": "nonpayable",
      "type": "function"
    },
    {
      "inputs": [
        {
          "internalType": "string",
          "name": "productId",
          "type": "string"
        },
        {
          "internalType": "string",
          "name": "condition",
          "type": "string"
        },
        {
          "internalType": "bool",
          "name": "onHold",
          "type": "bool"
        },
        {
          "internalType": "string",
          "name": "notes",
          "type": "string"
        }
      ],
      "name": "updateCondition",
      "outputs": [],
      "stateMutability": "nonpayable",
      "type": "function"
    }
  ],
  "bytecode": "0x6080604052348015600e575f5ffd5b506115898061001c5f395ff3fe608060405234801561000f575f5ffd5b506004361061007a575f3560e01c806369b3224a1161005857806369b3224a146100e05780639572fec3146101005780639f14f34914610113578063e360736e14610126575f5ffd5b80631c0030771461007e5780633406b718146100a657806368111cce146100bb575b5f5ffd5b61009161008c366004610f75565b610146565b60405190151581526020015b60405180910390f35b6100b96100b4366004610faf565b61017a565b005b6100ce6100c9366004610f75565b61041d565b60405161009d9695949392919061106b565b6100f36100ee366004610f75565b610741565b60405161009d91906110dc565b6100b961010e366004611192565b610958565b6100b9610121366004610faf565b610b10565b610139610134366004610f75565b610cdd565b60405161009d9190611237565b5f5f8260405161015691906112d5565b9081526040519081900360200190206003015460ff600160a01b9091041692915050565b5f8360405161018991906112d5565b9081526040519081900360200190206003015460ff600160a01b90910416156101f95760405162461bcd60e51b815260206004820152601a60248201527f50726f6475637420616c7265616479207265676973746572656400000000000060448201526064015b60405180910390fd5b6040518060e00160405280848152602001838152602001828152602001336001600160a01b031681526020016001151581526020016040518060400160405280600481526020016311dbdbd960e21b81525081526020015f15158152505f8460405161026591906112d5565b90815260405190819003602001902081518190610282908261136f565b5060208201516001820190610297908261136f565b50604082015160028201906102ac908261136f565b50606082015160038201805460808501511515600160a01b026001600160a81b03199091166001600160a01b039093169290921791909117905560a082015160048201906102fa908261136f565b5060c091909101516005909101805460ff19169115159190911790556040516001906103279085906112d5565b908152604080516020928190038301812060808201835233825282518084018452600c81526b13585b9d599858dd1d5c995960a21b818601528483019081529282018590524260608301528054600180820183555f92835294909120825160049092020180546001600160a01b0319166001600160a01b03909216919091178155915190928201906103b9908261136f565b50604082015160028201906103ce908261136f565b506060820151816003015550507f0c0d491e345bc2978c00d63d2467e57a7b6d771cf759616a786b1d339d75f1b583833342604051610410949392919061142a565b60405180910390a1505050565b60608060605f60605f5f8760405161043591906112d5565b9081526040519081900360200190206003015460ff600160a01b9091041661046f5760405162461bcd60e51b81526004016101f09061146b565b5f5f8860405161047f91906112d5565b90815260200160405180910390206040518060e00160405290815f820180546104a7906112eb565b80601f01602080910402602001604051908101604052809291908181526020018280546104d3906112eb565b801561051e5780601f106104f55761010080835404028352916020019161051e565b820191905f5260205f20905b81548152906001019060200180831161050157829003601f168201915b50505050508152602001600182018054610537906112eb565b80601f0160208091040260200160405190810160405280929190818152602001828054610563906112eb565b80156105ae5780601f10610585576101008083540402835291602001916105ae565b820191905f5260205f20905b81548152906001019060200180831161059157829003601f168201915b505050505081526020016002820180546105c7906112eb565b80601f01602080910402602001604051908101604052809291908181526020018280546105f3906112eb565b801561063e5780601f106106155761010080835404028352916020019161063e565b820191905f5260205f20905b81548152906001019060200180831161062157829003601f168201915b505050918352505060038201546001600160a01b0381166020830152600160a01b900460ff1615156040820152600482018054606090920191610680906112eb565b80601f01602080910402602001604051908101604052809291908181526020018280546106ac906112eb565b80156106f75780601f106106ce576101008083540402835291602001916106f7565b820191905f5260205f20905b8154815290600101906020018083116106da57829003601f168201915b50505091835250506005919091015460ff1615156020918201528151908201516040830151606084015160a085015160c090950151939d929c50909a509850919650945092505050565b60605f8260405161075291906112d5565b9081526040519081900360200190206003015460ff600160a01b9091041661078c5760405162461bcd60e51b81526004016101f09061146b565b60028260405161079c91906112d5565b9081526020016040518091039020805480602002602001604051908101604052809291908181526020015f905b8282101561094d575f8481526020908190206040805160a081019091526005850290910180546001600160a01b031682526001810180549293919291840191610811906112eb565b80601f016020809104026020016040519081016040528092919081815260200182805461083d906112eb565b80156108885780601f1061085f57610100808354040283529160200191610888565b820191905f5260205f20905b81548152906001019060200180831161086b57829003601f168201915b5050509183525050600282015460ff16151560208201526003820180546040909201916108b4906112eb565b80601f01602080910402602001604051908101604052809291908181526020018280546108e0906112eb565b801561092b5780601f106109025761010080835404028352916020019161092b565b820191905f5260205f20905b81548152906001019060200180831161090e57829003601f168201915b50505050508152602001600482015481525050815260200190600101906107c9565b505050509050919050565b5f8460405161096791906112d5565b9081526040519081900360200190206003015460ff600160a01b909104166109a15760405162461bcd60e51b81526004016101f09061146b565b825f856040516109b191906112d5565b908152602001604051809103902060040190816109ce919061136f565b50815f856040516109df91906112d5565b908152604051908190036020018120600501805492151560ff1990931692909217909155600290610a119086906112d5565b908152604080516020928190038301812060a08201835233825283820187815286151593830193909352606082018590524260808301528054600180820183555f92835294909120825160059092020180546001600160a01b0319166001600160a01b0390921691909117815591519092820190610a8f908261136f565b50604082015160028201805460ff191691151591909117905560608201516003820190610abc908261136f565b506080820151816004015550507fad1b7a5d66f008c2309df57ac630a5c3915830f358aa4b4a253bcc3d2e7ec45a843385858542604051610b0296959493929190611496565b60405180910390a150505050565b5f83604051610b1f91906112d5565b9081526040519081900360200190206003015460ff600160a01b90910416610b595760405162461bcd60e51b81526004016101f09061146b565b5f83604051610b6891906112d5565b9081526040519081900360200190206005015460ff1615610c015760405162461bcd60e51b815260206004820152604760248201527f50726f64756374206973206f6e20686f6c642064756520746f20636f6e64697460448201527f696f6e206973737565202d207265736f6c7665206265666f7265207472616e7360648201526666657272696e6760c81b608482015260a4016101f0565b600183604051610c1191906112d5565b90815260408051602092819003830181206080820183523382528382018681529282018590524260608301528054600180820183555f92835294909120825160049092020180546001600160a01b0319166001600160a01b0390921691909117815591519092820190610c84908261136f565b5060408201516002820190610c99908261136f565b506060820151816003015550507fe40aea7b10c6dd2adb329080a0c580642548888ed3b7d86a7832f53099eeb37483338484426040516104109594939291906114f9565b60605f82604051610cee91906112d5565b9081526040519081900360200190206003015460ff600160a01b90910416610d285760405162461bcd60e51b81526004016101f09061146b565b600182604051610d3891906112d5565b9081526020016040518091039020805480602002602001604051908101604052809291908181526020015f905b8282101561094d575f84815260209081902060408051608081019091526004850290910180546001600160a01b031682526001810180549293919291840191610dad906112eb565b80601f0160208091040260200160405190810160405280929190818152602001828054610dd9906112eb565b8015610e245780601f10610dfb57610100808354040283529160200191610e24565b820191905f5260205f20905b815481529060010190602001808311610e0757829003601f168201915b50505050508152602001600282018054610e3d906112eb565b80601f0160208091040260200160405190810160405280929190818152602001828054610e69906112eb565b8015610eb45780601f10610e8b57610100808354040283529160200191610eb4565b820191905f5260205f20905b815481529060010190602001808311610e9757829003601f168201915b5050505050815260200160038201548152505081526020019060010190610d65565b634e487b7160e01b5f52604160045260245ffd5b5f82601f830112610ef9575f5ffd5b813567ffffffffffffffff811115610f1357610f13610ed6565b604051601f8201601f19908116603f0116810167ffffffffffffffff81118282101715610f4257610f42610ed6565b604052818152838201602001851015610f59575f5ffd5b816020850160208301375f918101602001919091529392505050565b5f60208284031215610f85575f5ffd5b813567ffffffffffffffff811115610f9b575f5ffd5b610fa784828501610eea565b949350505050565b5f5f5f60608486031215610fc1575f5ffd5b833567ffffffffffffffff811115610fd7575f5ffd5b610fe386828701610eea565b935050602084013567ffffffffffffffff811115610fff575f5ffd5b61100b86828701610eea565b925050604084013567ffffffffffffffff811115611027575f5ffd5b61103386828701610eea565b9150509250925092565b5f81518084528060208401602086015e5f602082860101526020601f19601f83011685010191505092915050565b60c081525f61107d60c083018961103d565b828103602084015261108f818961103d565b905082810360408401526110a3818861103d565b6001600160a01b0387166060850152838103608085015290506110c6818661103d565b91505082151560a0830152979650505050505050565b5f602082016020835280845180835260408501915060408160051b8601019250602086015f5b8281101561118657868503603f19018452815180516001600160a01b0316865260208082015160a09188018290529061113d9088018261103d565b905060408201511515604088015260608201518782036060890152611162828261103d565b60809384015198909301979097525094506020938401939190910190600101611102565b50929695505050505050565b5f5f5f5f608085870312156111a5575f5ffd5b843567ffffffffffffffff8111156111bb575f5ffd5b6111c787828801610eea565b945050602085013567ffffffffffffffff8111156111e3575f5ffd5b6111ef87828801610eea565b93505060408501358015158114611204575f5ffd5b9150606085013567ffffffffffffffff81111561121f575f5ffd5b61122b87828801610eea565b91505092959194509250565b5f602082016020835280845180835260408501915060408160051b8601019250602086015f5b8281101561118657868503603f19018452815180516001600160a01b031686526020808201516080918801829052906112989088018261103d565b9050604082015187820360408901526112b1828261103d565b6060938401519890930197909752509450602093840193919091019060010161125d565b5f82518060208501845e5f920191825250919050565b600181811c908216806112ff57607f821691505b60208210810361131d57634e487b7160e01b5f52602260045260245ffd5b50919050565b601f82111561136a57805f5260205f20601f840160051c810160208510156113485750805b601f840160051c820191505b81811015611367575f8155600101611354565b50505b505050565b815167ffffffffffffffff81111561138957611389610ed6565b61139d8161139784546112eb565b84611323565b6020601f8211600181146113cf575f83156113b85750848201515b5f19600385901b1c1916600184901b178455611367565b5f84815260208120601f198516915b828110156113fe57878501518255602094850194600190920191016113de565b508482101561141b57868401515f19600387901b60f8161c191681555b50505050600190811b01905550565b608081525f61143c608083018761103d565b828103602084015261144e818761103d565b6001600160a01b0395909516604084015250506060015292915050565b602080825260119082015270141c9bd91d58dd081b9bdd08199bdd5b99607a1b604082015260600190565b60c081525f6114a860c083018961103d565b6001600160a01b038816602084015282810360408401526114c9818861103d565b9050851515606084015282810360808401526114e5818661103d565b9150508260a0830152979650505050505050565b60a081525f61150b60a083018861103d565b6001600160a01b0387166020840152828103604084015261152c818761103d565b90508281036060840152611540818661103d565b915050826080830152969550505050505056fea26469706673582212203026d3ed156803358f4241277e493a077fcb3b909903e119b6b6df25b5df292464736f6c634300081c0033",
  "linkReferences": {},
  "deployedLinkReferences": {},
  "immutableReferences": {},
  "inputSourceName": "project/contracts/ProductRegistry.sol",
  "buildInfoId": "solc-0_8_28-43b0c817be3b52b61779d377739927425d79140f"
}